:100026006300001400000000000000000000000053
:1000360000000000000000000000000000000000BA
:1000460000000000000000000000000000000000AA
:10005600000000000000000000000000000000009A
:10006600000000000000000000000000000000008A
:0403260000000000D3
:1011220074142FF58274003EF583E5A0F02290033B
:10113200B0E0FEA3E0FFC3EE648094832274142F18
:0A114200F58274003EF583E0FF2201
:03000B00020C20C4
:100C2000C0E0C0F0C083C082C0D075D000C000C09A
:100C300001C002C003C004C005C006C00720A30D48
:100C4000900315E4F0A3F0900314F08028900314AF
:100C5000E0FFA3E0FCA3E02400F58274003CF583F0
:100C6000EFF0900316E004F07006900315E004F036
:100C7000900314E4F07F0112131FD007D006D005B3
:100C8000D004D003D002D001D000D0D0D082D08305
:050C9000D0F0D0E032BD
:0300030002114C9B
:10114C00C0E0C083C082C0D075D000C0079003142B
:10115C00E025E0FFF0A2A0E4334FF0D007D0D0D0D0
:06116C0082D083D0E032C6
:100A4A00E49003A3F0A3F0D288D2A8D28AD2AAD281
:100A5A00AF900315F0A3F09003A1F0A3F090031454
:100A6A00F0900315E0FEA3E0FF9003A1E06E70038F
:100A7A00A3E06F600F9003A1EEF0A3EFF0E4A3F000
:100A8A00A3F080DD9003A3E475F001120383FED383
:100A9A00E5F0940AEE6480948040C6E49003A5F0E1
:100AAA00A3F09003A5E0FEA3E0FFC39414EE6480D4
:100ABA009480503174002FF58274003EF583E0FF74
:100ACA0012131F9003A5E0FEA3E02400F582740030
:100ADA003EF583E4F09003A6E004F070C59003A508
:0D0AEA00E004F080BD7FFF12131F020A6BB5
:100E060080369003A7E5A0F0A3E5A0F0E0FE9003EE
:100E1600A7E0FF6E602B12131F9003A8E0FF1213CA
:100E26001F9003AAE0A3FF12131F9003AAA3E0FFDB
:100E360012131F7FFF12131FE49003AAF0A3F08082
:100E4600C19003ABE004F070B99003AAE004F0800F
:010E5600B1EA
:10089C00E49003AEF0A3F0E49003B0F0A3F01211D7
:1008AC0030400302095C12112274152FF58274007A
:1008BC0012112974162FF582740012112974172F36
:1008CC00F582740012112974182FF582740012111C
:1008DC002974192FF5827400121129741A2FF582BC
:1008EC007400121129741B2FF582740012112974D3
:1008FC001C2FF5827400121129741D2FF5827400BF
:10090C00121129741E2FF5827400121129741F2FD5
:10091C00F582740012112974202FF58274001211C3
:10092C002974212FF582740012112974222FF5825B
:10093C00740012112974232FF5827400121129905E
:10094C0003B1E02410F09003B0E03400F00208AAE8
:10095C00E49003B0F0A3F012113040030208A3128C
:10096C00113F12131F9003B1E004F070EA9003B032
:05097C00E004F080E240
:10000E00E49003DCF09003DCE0FF12131F9003DC9E
:05001E00E004F080F099
:100CFA00E490039EF0A3F0A304F075A01F12130C56
:100D0A00120A4AE4FFFEA2A4E433FD9003A0E0B570
:100D1A0005F4121122ED60047D0080027D0190032A
:100D2A00A0EDF00FEF70010E12113840D9E49003D4
:100D3A009EF0A3F090039E12113350C712113F1276
:100D4A00131F90039FE004F070EA90039EE004F002
:020D5A0080E235
:0E032A0042034B000C420348000641034A0008
:10130C007598DA75892074FFF58DF58BD28ED2AC79
:02131C00D2AF4E
:01131E0022AC
:03002300020F3B8E
:100F3B00C0E0C083C082C0D075D008309822C29860
:100F4B0090034AE0C394204003E014F090034AE07E
:100F5B00FF04F0744D2FF582E43403F583E599F02B
:100F6B00309904C299C202D0D0D082D083D0E03263
:1012CB0090034AE060FA90034AE014F0244DF58253
:0812DB00E43403F583E0FF2277
:10131F002002FDEF30D004D29B8002C29BD202F597
:02132F00992201
:101063009003BEEBF0A3EAF0A3E9F09003BEE0FB2C
:10107300A3E0FAA3E0F912033D60179003BEA3E4D3
:1010830075F001120399A9F0FA12033DFF12131F21
:0310930080D922DF
:1009810090031B12040690031BE0FCA3E0FDA3E00F
:10099100FEA3E022120513E4FCFDFE90038612047F
:1009A10006900386A3A3A3E0FF2212040690031777
:1009B100E0F8A3E0F9A3E0FAA3E0FB22900325E02D
:1009C100FEA3E0FFC3900320E09FEE6480F8900354
:1009D1001FE06480982290036DA3E0FAA3E0F58202
:1009E1008A8322E0FCA3E0FDA3E0FEA3E02401FF53
:1009F100E43EFEE43DFDE43CFC22FFEA4EFEE94D0F
:100A0100FDE84CFC900317020406FF900321E0F877
:100A1100A3E0F9A3E0FAA3E0FB227B017A03796D5D
:100A210022E490031FF0A3F022FFA3A3E075F008D6
:100A3100A4F9F822A3F0A3E9F0A322900320E00493
:090A4100F02290031FE004F022F2
:0713BF007FE012131F80F90B
:0113D20022F8
:100FF80090036D74FFF0A37413F0A374D2F0F9A3F7
:1010080074FFF07413120A3574FFF07413120A3562
:1010180074FFF0A37413F0A3E9F0A374E1F0A31232
:071028000412000000002289
:1011F300120FF87F8812131F7F7712131F7F22129B
:0E120300131F1212CBEFF4FF12131F020AF793
:100AF7001212CBEF243E601114601314601B1460B4
:100B07006F240470EB7F5F80617F5A02131F120B03
:100B170087B45ADC12059680D7120FF890037974C0
:100B27005AF01212CBEF14601214601714601C24D1
:100B3700037020120A1B120F7B801E120A1B120D54
:100B47005C8016120A1B120DB1800E120A1B120CC2
:100B570095800690037974E1F09003731209DAE443
:100B6700FDFF120513900379E0FF12131F020AF726
:100B7700120B87645A6003020AF712077A020AF710
:0D0B8700900379E0FF12131F900379E02224
:10059600900325E4F0A37420F07FA1120770600396
:1005A6001213BF900317120412000000001209AEC6
:1005B600C000C001C002C0031212CBD003D002D0CB
:1005C60001D000EB4FFFEAFEE9FDE8FC90031712AD
:1005D60009ABC000C001C002C0031212CBEFFE334C
:1005E60095E0FDFCD003D002D001D000EB1209FB50
:1005F6001212CBE4FCFDFE90031B1209ABC000A354
:1006060012098AFF78101203D3D000EB4F1209FBB0
:100616007FA212131F900325E0FEA3E07804CEA26A
:10062600E713CE13D8F812076560031213BF9003C1
:100636002112041200000000120A2290031FE0FE9D
:10064600A3E0FFC39403EE648094805055EF24AA80
:10065600FF12131F90031B120412000000FF120961
:1006660087120A2A1203D3120981120A0BEF5BFFC3
:10067600EE5AFEED59FDEC58FC120981120A2A12B7
:1006860003C090031B12040690031BA3A3A3E0124E
:10069600076560031213BF120A3C7003120A430275
:1006A600064190031712098A120A0BC31203AF40C0
:1006B600030207487FA312131FE4900347F0120AB0
:1006C600231209BD50251212CB90031FE0FCA3E0B4
:1006D6002427F58274033CF583EFF0900347E02F5F
:1006E600F0120A3C7003120A4380D61212CB900312
:1006F60047E06F600D7FA412077060A61213BF0259
:1007060006A8120A221209BD50987B017A037921A4
:10071600C002E0FEA3E02427F58274033EF583E0E1
:10072600FD9003701209DAD002120513900321120C
:1007360009E4900321120406120A3C7003120A43CC
:1007460080C3900376A3E0FAA3E0F912050F7FAF0A
:0E07560012131F1212CBEF645A60031213BF6E
:1007640022FF12131F1212CBEF645A2212131F120C
:0607740012CBEF645A22D3
:10077A001212CBEF245F602614602D24F8603E1419
:10078A00700302083914700302084B24FD70030237
:10079A000896240F70DA1212CB90038D800612127B
:1007AA00CB90038CEFF080101212CB90038AE4F006
:1007BA00A3EFF090038AE0A3E0FF0208901212CBA5
:1007CA0090037FEFF0E490037EF090038AE0FCA3AD
:1007DA00E0FDA3E0FEA3E0FF900382803890037F50
:1007EA00E0FF90037EE0C39F50307B017A03798A51
:1007FA00C0021209D7D00212099512131F1209A2B8
:10080A00900380E02FF090037EE004F090038A12B8
:10081A0009E490038A12040680C390038212098AAB
:10082A00FF90038A120406900380E0FF0208907B7F
:10083A00017A03798AC0021209D7D0021209958077
:10084A004590037A12098AFF900386120406E490FF
:10085A000381F090038612098A6401FFEC4D4E4F22
:10086A00601F900381E0C3942050161209A27801F8
:10087A001203C0900386120406900381E004F080FC
:10088A00D2900381E0FF12131F02077A7F5A0213E4
:01089A001F3E
:01089B00223A
:0C139E009003C1E0FBA3E0FAA3E0F922F9
:10126700900003120356F580900002120356F59082
:09127700900001120356F5B022AB
:0F13650030B7FD121267D2EEC2ECC2EDAFA0227C
:1013430030B7FD121267C2ECD2EDC2EEAF058FA02B
:011353002277
:100F7B009003C1EBF0A3EAF0A3E9F07BFF7A1379BE
:100F8B0043C003C002C00112139E9000031204B6AB
:100F9B007BFF7A137965C003C002C00112139E1246
:100FAB00046712139E90000D1204430020000022D0
:10124D009003C4E0FBA3E0FAA3E0F9221212F89098
:0A125D000001120356540725E02299
:0113D30022F7
:1012F800D2ED1213D3D2B71213D3C2ED1213D3C245
:04130800B70213D342
:0F137400C2ED1213D3D2B71213D3D2ED0213D39B
:10102F00E4FED2EDFDEE25E0FED2B730B7FB121392
:10103F00D330ED04EE4401FEC2B70DEDB408E6EF78
:10104F006004C2ED8002D2EDD2B71213D3C2B7D271
:03105F00EDAF06EC
:01106200226B
:100EF1001212F8900001120356540725E044A0FF96
:100F0100120F15900002120356FF120F15900003E5
:040F1100120356FF72
:100F15007E08EF30E704D2ED8002C2EDD2B7EF25AF
:100F2500E0FFC2B7DEECD2EDD2B71213D3A2ED9239
:050F350003C2B7A20396
:010F3A002294
:10135400D20412125944A0FF120F1592042004F271
:011364002266
:0E138300120EF1AF05120F151213740213545F
:1012E300120EF112125944A1FF120F15E4FF12104E
:0412F3002F1213742F
:0112F70022D4
:05000600D2EDD2B7228B
:100D5C009003C4EBF0A3EAF0A3E9F07BFF7A1279DD
:100D6C00E3C003C002C00112124D1204677BFF7A6C
:100D7C00137983C003C002C00112124D90000312FC
:100D8C0004B67BFF7A007906C003C002C0011212C0
:100D9C004D9000061204B612124D90000D12044331
:050DAC00000020002200
:101211009003C7E0FBA3E0FAA3E0F92290000312D8
:0E1221000356540F248EF582E43403F5832225
:0613C60012121DE0FF22DF
:0613CC0012121DEDF022DB
:1011D400E4FFFEEF139281748E2FF58274033EF5C3
:0E11E40083EFF00FBF00010EEF64104E70E5B8
:0111F20022DA
:100DB1009003C7EBF0A3EAF0A3E9F07BFF7A137984
:100DC100C6C003C002C0011212111204677BFF7A70
:100DD1001379CCC003C002C001121211900003129A
:100DE10004B67BFF7A1179D4C003C002C00112128C
:100DF100119000061204B612121190000D12044354
:050E01000000001022BA
:04033800C100C1013E
:100E57009003D9E0FBA3E0FAA3E0F922EBF0A3EAC1
:100E6700F0A3E9F022121391A20092079003CDEBB1
:100E7700F0A3EAF0A3E9F02290000212035654FC13
:100E8700FF9003BCE054FC6F22900001120356FF51
:0E0E97009003BBE06F22E0F9A3E0FAA3E02293
:10128000E4FFD2EEFED2B6EF25E0FFA2EEE4334F4C
:08129000FFC2B60EEEB408ED3A
:011298002233
:0611B400C2B6C2B57FD7F0
:1011BA00E4FEEF30E704D2EC8002C2ECD2B6C2B64B
:0911CA00EF25E0FF0EEEB408E988
:0111D30022F9
:0813B6001211B4121280D2B52D
:0113BE00220C
:0D1391001211B4121280EF30E7F9D2B5222C
:10122F001211BAE4FF1211BA9000021203565401C0
:0E123F00FF1211BA900003120356FF0211BAFB
:101172003005047F8480027F87C2B6C2B59003B275
:10118200120E5A12122F9003B5E0FF1211BAD2B505
:01119200223A
:101193003006047FD480027FD6C2B6C2B59003CA9C
:1011A300120E5A12122FE4FF1211BA121280D2B584
:0111B3002219
:10109600900002120356FE5480FDEE25E09003DD1B
:1010A600F0900001120356FE25E04DFD1211BAAF75
:1010B600051211BA9003DDE0FF1211BAE4FF021126
:0110C600BA6F
:101299003007047F8880027F89C2B6C2B59003CD2A
:0812A900120E5A121096D2B584
:0112B100221A
:1012B2003008047F5380027F55C2B6C2B59003D076
:0812C200120E5A121096D2B56B
:0112CA002201
:0C13AA00C2B6C2B57F81121096D2B522E7
:060EA5009003D3120E635E
:100EAB00A200B39209121391A20992089003D312D4
:100EBB000E9D9003D0C9120E641212B21213913010
:100ECB0001117B017A0379BA1213AA120E6C12125A
:100EDB0099C201A20992009003D3120E5A1203E693
:060EEB009003BA020406A8
:100FBB009003B9EDF09003B6120E63120E90600E13
:100FCB009003B6120E5A120E7F6003120EA5A200EA
:100FDB0092059003B6120E9D9003B2C9120E649047
:0D0FEB0003B9E09003B5F0121172D201229B
:0610C7009003D6120E6337
:1010CD00120E90600E9003D6120E5A120E7F600310
:1010DD00120EA5A20092069003D6120E9D9003CA81
:0710ED00C9120E64121193F9
:0110F40022D9
:1010F5009003BA12041200000000C200C2011213CC
:1011050091A20092087A0379BA9003D07401F0A3F2
:0D1115007403F0A374BAF01212B202139129
:101331001213917B017A0379BA1213AA120E6C026D
:021341001299FF
:100C95009003D9120E637BFF7A1079C7C003C00297
:100CA500C001120E571204677BFF7A0F79BBC00390
:100CB500C002C001120E579000031204B67BFF7AE2
:100CC5001079F5C003C002C001120E57900006123C
:100CD50004B67BFF7A137931C003C002C001120E3E
:100CE500579000091204B6120E5790000D120443D6
:050CF5000020000022B8
:03000000020B945C
:0C0B9400787FE4F6D8FD758121020BDBB0
:10033D00BB010689828A83E0225002E722BBFE02BE
:09034D00E32289828A83E49322F1
:10035600BB010CE58229F582E5833AF583E022505C
:1003660006E92582F8E622BBFE06E92582F8E222A6
:0D037600E58229F582E5833AF583E49322C0
:10038300C5F0F8A3E028F0C5F0F8E5821582700205
:060393001583E038F022A2
:10039900A3F8E0C5F025F0F0E58215827002158317
:0603A900E0C838F0E82274
:1003AF00EB9FF5F0EA9E42F0E99D42F0E89C45F0A4
:0103BF00221B
:1003C000E8600FECC313FCED13FDEE13FEEF13FF1B
:0303D000D8F1223F
:1003D300E8600FEFC333FFEE33FEED33FDEC33FC88
:0303E300D8F1222C
:1003E600BB010789828A830205215005E9F80205C7
:1003F60015BBFE05E9F802052D89828A83020539B7
:0C040600ECF0A3EDF0A3EEF0A3EFF02269
:10041200A8828583F0D083D0821204291204291283
:100422000429120429E473E493A3C583C5F0C583A8
:10043200C8C582C8F0A3C583C5F0C583C8C582C834
:010442002297
:10044300BB010DE58229F582E5833AF583020412A7
:100453005007E92582F8020549BBFE07E92582F822
:04046300020562220A
:10046700BB011A89828A83D0F0D0E0F8D0E0F9D0B6
:10047700E0FAD0E0FBE8C0E0C0F00205845016E9DE
:10048700F8D083D082D0E0F9D0E0FAD0E0FBC08288
:10049700C08302057BBBFE16E9F8D083D082D0E08B
:0F04A700F9D0E0FAD0E0FBC082C08302058D22BD
:1004B600BB0120E58229F582E5833AF583D0F0D0A9
:1004C600E0F8D0E0F9D0E0FAD0E0FBE8C0E0C0F018
:1004D6000205845018E92582F8D083D082D0E0F94D
:1004E600D0E0FAD0E0FBC082C08302057BBBFE18D9
:1004F600E92582F8D083D082D0E0F9D0E0FAD0E0C6
:09050600FBC082C08302058D22B6
:06050F008A838982E47377
:100BA000020CFAE493A3F8E493A34003F68001F265
:100BB00008DFF48029E493A3F85407240CC8C33356
:100BC000C4540F4420C8834004F456800146F6DF25
:100BD000E4800B0102040810204080900026E47E8F
:100BE000019360BCA3FF543F30E509541FFEE4931A
:100BF000A360010ECF54C025E060A840B8E493A3E1
:100C0000FAE493A3F8E493A3C8C582C8CAC583CA0B
:100C1000F0A3C8C582C8CAC583CADFE9DEE780BEC3
:01033C0000C0
:0C051500E6FC08E6FD08E6FE08E6FF2212
:0C052100E0FCA3E0FDA3E0FEA3E0FF224D
:0C052D00E2FC08E2FD08E2FE08E2FF220A
:10053900E493FC740193FD740293FE740393FF2208
:10054900D083D082E493F608740193F60874029379
:09055900F608740393F6740473B0
:10056200D083D082E493F208740193F20874029368
:09057200F208740393F27404739F
:09057B00EBF608EAF608E9F622A5
:09058400EBF0A3EAF0A3E9F02278
:09058D00EBF208EAF208E9F2229F
:00000001FF
